:020000040800F2
:100000000090002009040008C1030008C70300088D
:1000100000000000000000000000000000000000E0
:10002000000000000000000000000000CD030008F8
:100030000000000000000000D7030008E1030008F2
:10004000590400085904000859040008590400081C
:10005000590400085904000859040008590400080C
:1000600059040008590400085904000859040008FC
:1000700059040008590400085904000859040008EC
:1000800059040008590400085904000859040008DC
:1000900059040008590400085904000859040008CC
:1000A00059040008590400085904000859040008BC
:0C00B00059040008590400085904000815
:1000BC0010B5064C2378002B07D1054B002B02D032
:1000CC00044800E000BF0123237010BD180000207D
:1000DC0000000000302A0008044B10B5002B03D0A0
:1000EC000349044800E000BF10BDC04600000000FA
:1000FC001C000020302A0008002243088B4274D3D5
:10010C0003098B425FD3030A8B4244D3030B8B420C
:10011C0028D3030C8B420DD3FF22090212BA030C15
:10012C008B4202D31212090265D0030B8B4219D3F6
:10013C0000E0090AC30B8B4201D3CB03C01A524116
:10014C00830B8B4201D38B03C01A5241430B8B425E
:10015C0001D34B03C01A5241030B8B4201D30B0347
:10016C00C01A5241C30A8B4201D3CB02C01A52416E
:10017C00830A8B4201D38B02C01A5241430A8B4231
:10018C0001D34B02C01A5241030A8B4201D30B021A
:10019C00C01A5241CDD2C3098B4201D3CB01C01A34
:1001AC00524183098B4201D38B01C01A524143093E
:1001BC008B4201D34B01C01A524103098B4201D32C
:1001CC000B01C01A5241C3088B4201D3CB00C01A99
:1001DC00524183088B4201D38B00C01A5241430811
:1001EC008B4201D34B00C01A5241411A00D2014636
:1001FC00524110467047FFE701B5002000F006F8A9
:10020C0002BDC0460029F7D076E770477047C0465C
:10021C0080B500AF0421002000F04EF9C046BD4669
:10022C0080BD000080B500AF00F036FB064B00220D
:10023C000021180000F008FC044B002202211800D9
:10024C0000F002FCF2E7C046482A0008502A0008D9
:10025C0080B582B000AF00F03DFC00F01FF8084BF9
:10026C005A6B074B01210A435A63054B5B6B012206
:10027C0013407B607B68C046BD4602B080BDC04663
:10028C000010024080B582B000AF78607B68180027
:10029C0000F0A6FCC046BD4602B080BD90B593B040
:1002AC0000AF10243B19180038231A00002102F06B
:1002BC00B1FB3B00180010231A00002102F0AAFB2E
:1002CC0080239B00180001F0D9FC3B1902221A6014
:1002DC003B1980225200DA6021007B1800221A613F
:1002EC007B1840225A617B180222DA617B180222A9
:1002FC001A627B1800225A627B1808229A627B18B9
:10030C0080229202DA627B18802292041A637B1894
:10031C00802292055A637B18180001F0EFFC031E33
:10032C0001D000F019F83B0007221A603B000222B2
:10033C005A603B0000229A603B000022DA603B00CE
:10034C000221180001F0F4FF031E01D000F004F8A4
:10035C00C046BD4613B090BD80B500AF72B6C04666
:10036C00FEE7000080B582B000AF114B1A6C104B49
:10037C0001210A431A640E4B1B6C012213407B6053
:10038C007B680B4BDA6B0A4B802149050A43DA6315
:10039C00074BDA6B80235B0513403B603B68C02343
:1003AC00DB00180000F040FCC046BD4602B080BD2A
:1003BC000010024080B500AFFEE780B500AFFEE74D
:1003CC0080B500AFC046BD4680BD80B500AFC0460D
:1003DC00BD4680BD80B500AF00F0E6FBC046BD4613
:1003EC0080BD000080B500AF034B802212059A60DF
:1003FC00C046BD4680BDC04600ED00E00D488546B8
:10040C00FFF7F0FF0C480D490D4A002302E0D458C9
:10041C00C4500433C4188C42F9D30A4A0A4C002342
:10042C0001E013600432A242FBD302F0CFFA02F0D7
:10043C00C1FAFEE700900020000000201800002008
:10044C00A0330008180000208C000020FEE70000FC
:10045C0080B582B000AFFB1C01221A7000237B60B8
:10046C001EE07B68D8B213497A6813005B009B18B6
:10047C009B00CB1808331B78190000F01DF87B6823
:10048C00D8B20C497A6813005B009B189B00CB1800
:10049C000B331B78190000F083F87B6801337B6009
:1004AC007B68002BDDDDFB1C1B781800BD4602B001
:1004BC0080BDC0460400002080B588B000AF0200AB
:1004CC00FB1D1A70BB1D0A1C1A701F23FB1801227E
:1004DC001A700823FB18180014231A00002102F0CC
:1004EC0099FABB1D1B78052B34D89A002A4BD318CC
:1004FC001B689F4608217B1800225A607B1800223B
:10050C009A6027E008217B1800225A607B18012290
:10051C009A601FE008217B1800225A607B18022287
:10052C009A6017E008217B1801225A607B18002280
:10053C009A600FE008217B1801225A607B18012277
:10054C009A6007E008217B1801225A607B1802226E
:10055C009A60C046FB1D1A78104913005B009B186B
:10056C009B00CB1804331A6808203B181A60FB1D3B
:10057C001A780A4913005B009B189B005B583A18C9
:10058C001100180000F01AFC1F23FB181B78180030
:10059C00BD4608B080BDC046982A00080400002063
:1005AC0090B583B000AF0200FB1D1A70BB1D0A1C76
:1005BC001A70FB1D1B78002B47D1BB1D1B78002B21
:1005CC0021D0FB1D1A78234913005B009B189B005C
:1005DC005858FB1D1A781F4913005B009B189B0091
:1005EC00CB1804331B689CB2FB1D1A7819491300F5
:1005FC005B009B189B00CB1809331B781A00210059
:10060C0000F040FD22E0FB1D1A78124913005B003C
:10061C009B189B005858FB1D1A780E4913005B0061
:10062C009B189B00CB1804331B689CB2FB1D1A78DB
:10063C00084913005B009B189B00CB180A331B78EE
:10064C001A00210000F01EFD00E0C046BD4603B0BC
:10065C0090BDC0460400002080B500AF1B4B1C4A67
:10066C001A601A4B1B4A5A60184B00229A60174B9F
:10067C000122DA60154B00221A61144B00225A61D8
:10068C00124B00229A61114B0022DA610F4B0022AF
:10069C001A620E4B180000F013FD031E01D0FFF779
:1006AC005BFE0A4B0021180001F050FA031E01D02A
:1006BC00FFF752FE054B0021180001F093FA031EC0
:1006CC0001D0FFF749FEC046BD4680BD3400002076
:1006DC00005400407321600090B597B000AF786073
:1006EC004423FB18180014231A00002102F092F97D
:1006FC0010243B19180034231A00002102F08AF947
:10070C007B681B68234A93423FD13B1920221A6015
:10071C003B1900221A613B19180001F093FF031ECC
:10072C0001D0FFF719FE1C4B5A6B1B4B01210A43DE
:10073C005A63194B5B6B01221340FB60FB6844212D
:10074C007B18C022D2001A607B1812225A607B18C8
:10075C0000229A607B180022DA607B1806221A614C
:10076C007A18A023DB051100180000F027FB0A4BB8
:10077C00DA6B094B802189030A43DA63064BDA6B87
:10078C0080239B031340BB60BB68C046BD4617B0BB
:10079C0090BDC046005400400010024080B586B0A9
:1007AC0002AF0200FB1D1A700C217B1800221A806C
:1007BC007B1800221A707B18FA1D12785A707A185E
:1007CC00054801235B4200930223782100F00EFDC3
:1007DC00C046BD4604B080BD3400002080B586B054
:1007EC0004AF786039603B689BB2084801225242E2
:1007FC00029201937B68009301234022782100F040
:10080C00FDFDC046BD4602B080BDC0463400002090
:10081C0080B500AFC820FFF735FDA820FFF7BEFF5D
:10082C003F20FFF7BBFFD320FFF7B8FF0020FFF7F7
:10083C00B5FF4020FFF7B2FFA020FFF7AFFFC820A5
:10084C00FFF7ACFFDA20FFF7A9FF1220FFF7A6FF96
:10085C002020FFF7A3FF0220FFF7A0FF8120FFF766
:10086C009DFF7F20FFF79AFFA420FFF797FFA6209C
:10087C00FFF794FFD520FFF791FF8020FFF78EFF45
:10088C008D20FFF78BFF1420FFF788FFAF20FFF7B9
:10089C0085FFC046BD4680BD90B5A3B000AF3B1DE3
:1008AC0000221A6004337C220021180002F0B2F8F6
:1008BC000020FFF773FF1020FFF770FF8723FB1852
:1008CC0000221A7011E087243B191B78503BDBB2D5
:1008DC001800FFF763FF3B1D80211800FFF77EFF18
:1008EC003B191A783B1901321A708723FB181B78B5
:1008FC00072BE8D9C046C046BD4623B090BDB0B565
:10090C0084B000AF0200FB1D1A70BB1D0A1C1A70CC
:10091C000F243B190F221A700E203B181F221A703D
:10092C003B19BA1D12780F210A401A70BB1D1B7897
:10093C001B09DBB25BB2102213435AB205003B1801
:10094C001A70FB1D1B78503BDBB21800FFF726FF1B
:10095C003B191B781800FFF721FF7B191B78180037
:10096C00FFF71CFFC046BD4604B0B0BD90B58BB0C0
:10097C0000AF040008001100FB1D221C1A70BB1DE7
:10098C00021C1A703B1D0A1C1A800C23FB18002237
:10099C001A60043314220021180002F03BF82723BC
:1009AC00FB1800221A7018E0FB1D1B78203B1A0064
:1009BC0013005B009B18DB001A0027203B181B78E8
:1009CC00D2183B181B781F49895C0C22BA18D154D9
:1009DC003B181A783B1801321A702723FB181B7826
:1009EC00172BE1D92623FB1800221A7020E0BA1D20
:1009FC0026243B1912781B78D318DAB23B1D1B88BE
:100A0C00DBB219001000FFF77AFF3B191A781300BC
:100A1C005B009B189B001A000C23FB189B180C21E5
:100A2C001800FFF7DBFE3B191A783B1901321A70DC
:100A3C002623FB181B78012BD9D9C046C046BD46CE
:100A4C000BB090BDB02A000880B582B000AF7860C2
:100A5C0008001100FB1C021C1A70BB1C0A1C1A702B
:100A6C0021E0BB1C1B78732B0BD9FB1C1B78062BB2
:100A7C001ED0FB1CFA1C127802321A70BB1C00220E
:100A8C001A707B681878BB1C1B789AB2FB1C1B78FD
:100A9C001900FFF76BFFBB1CBA1C12780C321A70D2
:100AAC007B6801337B607B681B78002BD9D100E01D
:100ABC00C046C046BD4602B080BD80B500AFFFF752
:100ACC00C7FBFFF7C9FDFFF7C3FCFFF7A1FEC0464C
:100ADC00BD4680BD80B582B000AFFB1D00221A70F0
:100AEC000B4B1A680A4B802149000A431A600320F9
:100AFC0000F010F8031E03D0FB1D01221A7001E058
:100B0C00FFF730FCFB1D1B781800BD4602B080BD02
:100B1C000020024090B585B000AF78600F23FB1821
:100B2C0000221A701D4B1B78002B2BD01C4B1C6801
:100B3C001A4B1B781900FA239800FFF7DDFA030013
:100B4C0019002000FFF7D8FA0300180000F029F96B
:100B5C00031E12D17B68032B0AD8796801235B42F0
:100B6C000022180000F008F90E4B7A681A600DE0AC
:100B7C000F23FB1801221A7008E00F23FB18012227
:100B8C001A7003E00F23FB1801221A700F23FB18B5
:100B9C001B781800BD4605B090BDC046140000205F
:100BAC00000000201000002080B500AF054B1B7822
:100BBC001A00054B1B68D218034B1A60C046BD4681
:100BCC0080BDC046140000208800002080B500AF16
:100BDC00024B1B681800BD4680BDC0468800002033
:100BEC0080B584B000AF7860FFF7F0FF0300BB6006
:100BFC007B68FB60FB68013305D00A4B1B781A003D
:100C0C00FB689B18FB60C046FFF7E0FF0200BB6867
:100C1C00D31AFA689A42F7D8C046C046BD4604B00B
:100C2C0080BDC0461400002080B582B000AF786053
:100C3C00064B1B68064A13401900044B7A680A439A
:100C4C001A60C046BD4602B080BDC04600000140DF
:100C5C00FFF9FFFF90B583B000AF02003960FB1DB8
:100C6C001A70FB1D1B787F2B28D82F4AFB1D1B7875
:100C7C005BB29B08C0339B009B58FA1D1278110085
:100C8C0003220A40D200FF2191400A00D2431A40AD
:100C9C0011003B689B01FF221A40FB1D1B781800BA
:100CAC0003230340DB009A401F48FB1D1B785BB2FB
:100CBC009B080A43C0339B001A5031E01B4AFB1DB2
:100CCC001B7819000F230B40083B9B0806339B0035
:100CDC00D31804331B68FA1D1278110003220A4042
:100CEC00D200FF2191400A00D2431A4011003B6808
:100CFC009B01FF221A40FB1D1B78180003230340A5
:100D0C00DB009A400948FB1D1B781C000F23234075
:100D1C00083B9B080A4306339B00C31804331A6034
:100D2C00C046BD4603B090BD00E100E000ED00E020
:100D3C0080B582B000AF78607B685A1E80235B045C
:100D4C009A4201D3012310E00A4B7A68013A5A60A7
:100D5C0001235B4203211800FFF77CFF054B0022A7
:100D6C009A60044B07221A6000231800BD4602B09B
:100D7C0080BDC04610E000E080B584B000AFB96023
:100D8C007A600F217B18021C1A70BA687B181B78CA
:100D9C005BB211001800FFF75DFFC046BD4604B002
:100DAC0080BD80B582B000AF78607B681800FFF71B
:100DBC00BFFF03001800BD4602B080BD80B586B0F1
:100DCC0000AF7860396000237B6147E13B681B68AA
:100DDC0001217A6991400A001340FB60FB68002BEB
:100DEC0000D138E13B685B6803221340012B05D02E
:100DFC003B685B6803221340022B30D17B689B68F5
:100E0C003B617B695B0003229A401300DA433B6928
:100E1C0013403B613B68DA687B695B009A401300C6
:100E2C003A6913433B617B683A699A607B685B68FB
:100E3C003B6101227B699A401300DA433B69134002
:100E4C003B613B685B681B0901221A407B699A4035
:100E5C0013003A6913433B617B683A695A603B68FB
:100E6C005B6803221340032B17D07B68DB683B6164
:100E7C007B695B0003229A401300DA433B69134001
:100E8C003B613B689A687B695B009A4013003A6946
:100E9C0013433B617B683A69DA603B685B68032209
:100EAC001340022B23D17B69DA087B68083292004D
:100EBC00D3583B617B69072213409B000F229A4059
:100ECC001300DA433B6913403B613B681A697B6949
:100EDC0007210B409B009A4013003A6913433B6176
:100EEC007B69DA087B68083292003969D1507B68DB
:100EFC001B683B617B695B0003229A401300DA4359
:100F0C003B6913403B613B685B6803221A407B6979
:100F1C005B009A4013003A6913433B617B683A6962
:100F2C001A603B685A68C0239B02134000D192E0C0
:100F3C00504A7B699B0818339B009B583B617B692B
:100F4C0003221340DB000F229A401300DA433B6963
:100F5C0013403B617A68A023DB059A4213D07B686F
:100F6C00454A93420DD07B68444A934207D07B6834
:100F7C00434A934201D1032306E0052304E00223F4
:100F8C0002E0012300E000237A6903210A40D20029
:100F9C0093403A6913433B6136497B699B0818338C
:100FAC009B003A695A50334B1B683B61FB68DA4330
:100FBC003B6913403B613B685A6880235B031340D9
:100FCC0003D03A69FB6813433B612A4B3A691A60B8
:100FDC00284B5B683B61FB68DA433B6913403B6120
:100FEC003B685A6880239B03134003D03A69FB6823
:100FFC0013433B611F4B3A695A601E4A8423D358F2
:10100C003B61FB68DA433B6913403B613B685A68C0
:10101C0080239B02134003D03A69FB6813433B6166
:10102C00144984223B698B50124A8023D3583B616C
:10103C00FB68DA433B6913403B613B685A68802389
:10104C005B02134003D03A69FB6813433B610949C7
:10105C0080223B698B507B6901337B613B681A684A
:10106C007B69DA40131E00D0B0E6C046C046BD46D0
:10107C0006B080BD0018024000040050000800506B
:10108C00000C005080B582B000AF786008001100F1
:10109C00BB1C021C1A807B1C0A1C1A707B1C1B7844
:1010AC00002B04D0BB1C1A887B689A6103E0BB1C24
:1010BC001A887B689A62C046BD4602B080BD0000AB
:1010CC0080B582B000AF78607B68002B01D1012322
:1010DC0082E07B6841229B5CDBB2002B07D17B68F2
:1010EC004022002199547B681800FFF7F5FA7B68C1
:1010FC004122242199547B681B681A687B681B6801
:10110C0001218A431A607B685A687B681B683449E2
:10111C000A401A617B681B689A687B681B683149B6
:10112C000A409A607B68DB68012B08D17B689A685F
:10113C007B681B68802109020A439A6007E07B6880
:10114C009A687B681B68842109020A439A607B6851
:10115C00DB68022B04D17B681B68802212015A6069
:10116C007B681B685A687B681B681F490A435A6076
:10117C007B681B68DA687B681B681A490A40DA606E
:10118C007B681A697B685B691A4311007B689B69F1
:10119C001A027B681B680A43DA607B68D9697B6832
:1011AC001A6A7B681B680A431A607B681B681A689A
:1011BC007B681B6801210A431A607B6800225A6411
:1011CC007B684122202199547B6800221A637B683A
:1011DC0042220021995400231800BD4602B080BD64
:1011EC00FFFFFFF0FF7FFFFF0080000290B589B08A
:1011FC0002AFF86008007A6019000A23FB18021C81
:10120C001A800823FB180A1C1A80FB6841229B5C7D
:10121C00DBB2202B00D0E7E0FB6840229B5C012B6B
:10122C0001D10223E1E0FB68402201219954FFF730
:10123C00CDFC03007B6180231902F8687B69009365
:10124C001923012200F08EFA031E01D00123CCE0F9
:10125C00FB68412221219954FB68422210219954A8
:10126C00FB6800225A64FB687A685A62FB680822A1
:10127C00BA1812885A85FB6800225A63FB685B8D8A
:10128C009BB2FF2B11D9FB68FF221A85FB681B8DC3
:10129C00DAB280235C040A23FB181988F868554BD2
:1012AC000093230000F018FC75E0FB685B8D9AB28C
:1012BC00FB681A85FB681B8DDAB280239C040A2319
:1012CC00FB181988F8684B4B0093230000F004FCC2
:1012DC0061E07A69B96AFB68180000F082FA031EB3
:1012EC0001D0012381E0FB685B6A1A78FB681B68FC
:1012FC009A62FB685B6A5A1CFB685A62FB685B8DDE
:10130C009BB2013B9AB2FB685A85FB681B8D013B73
:10131C009AB2FB681A85FB685B8D9BB2002B3AD0A6
:10132C00FB681B8D002B36D1BA6AF8687B69009379
:10133C0013000022802100F015FA031E01D00123B6
:10134C0053E0FB685B8D9BB2FF2B11D9FB68FF222E
:10135C001A85FB681B8DDAB280235C040A23FB1808
:10136C001988F86800230093230000F0B5FB12E005
:10137C00FB685B8D9AB2FB681A85FB681B8DDAB231
:10138C0080239C040A23FB181988F8680023009317
:10139C00230000F0A1FBFB685B8D9BB2002B98D166
:1013AC007A69B96AFB68180000F05AFA031E01D07A
:1013BC0001231AE0FB681B682022DA61FB681B68BA
:1013CC005A68FB681B680C490A405A60FB6841224A
:1013DC0020219954FB68422200219954FB68402239
:1013EC0000219954002300E002231800BD4607B0E9
:1013FC0090BDC0460020008000E800FE90B589B08A
:10140C0002AFF8600C00100019000A23FB18221C14
:10141C001A800823FB18021C1A80BB1D0A1C1A8098
:10142C00FB6841229B5CDBB2202B00D00CE1BB6A39
:10143C00002B04D02C23FB181B88002B05D1FB6838
:10144C00802292005A640123FFE0FB6840229B5CDF
:10145C00012B01D10223F8E0FB68402201219954B1
:10146C00FFF7B4FB03007B6180231902F8687B69EA
:10147C0000931923012200F075F9031E01D00123FA
:10148C00E3E0FB68412221219954FB684222402170
:10149C009954FB6800225A64FB68BA6A5A62FB686A
:1014AC002C22BA1812885A85FB6800225A63BB1D7D
:1014BC001C880823FB181A880A23FB181988F8685B
:1014CC007B6901933B6B0093230000F0C5F8031E6E
:1014DC0005D0FB684022002199540123B5E0FB683C
:1014EC005B8D9BB2FF2B11D9FB68FF221A85FB6821
:1014FC001B8DDAB280235C040A23FB181988F86868
:10150C0000230093230000F0E7FA12E0FB685B8DE8
:10151C009AB2FB681A85FB681B8DDAB280239C0497
:10152C000A23FB181988F86800230093230000F0A5
:10153C00D3FA7A69396BFB68180000F052F9031E74
:10154C0001D0012381E0FB685B6A1A78FB681B6899
:10155C009A62FB685B6A5A1CFB685A62FB685B8D7B
:10156C009BB2013B9AB2FB685A85FB681B8D013B11
:10157C009AB2FB681A85FB685B8D9BB2002B3AD044
:10158C00FB681B8D002B36D13A6BF8687B69009396
:10159C0013000022802100F0E5F8031E01D0012386
:1015AC0053E0FB685B8D9BB2FF2B11D9FB68FF22CC
:1015BC001A85FB681B8DDAB280235C040A23FB18A6
:1015CC001988F86800230093230000F085FA12E0D4
:1015DC00FB685B8D9AB2FB681A85FB681B8DDAB2CF
:1015EC0080239C040A23FB181988F86800230093B5
:1015FC00230000F071FAFB685B8D9BB2002B98D135
:10160C007A69396BFB68180000F02AF9031E01D0C7
:10161C0001231AE0FB681B682022DA61FB681B6857
:10162C005A68FB681B680B490A405A60FB684122E8
:10163C0020219954FB68422200219954FB684022D6
:10164C0000219954002300E002231800BD4607B086
:10165C0090BDC04600E800FEB0B586B002AFF860A1
:10166C000C00100019000A257B19221C1A80082373
:10167C00FB18021C1A80BB1D0A1C1A80BB1D1B8880
:10168C00DAB280235C047B191988F868234B009329
:10169C00230000F021FA7A6A396AFB68180000F01E
:1016AC00A0F8031E01D0012333E0BB1D1B88012BC6
:1016BC0007D10823FB181B88DAB2FB681B689A62F7
:1016CC0019E00823FB181B881B0A9BB2DAB2FB68D3
:1016DC001B689A627A6A396AFB68180000F081F814
:1016EC00031E01D0012314E00823FB181B88DAB277
:1016FC00FB681B689A623A6AF8687B6A009313006D
:10170C000022802100F02EF8031E01D0012300E0FE
:10171C0000231800BD4604B0B0BDC04600200080B8
:10172C0080B582B000AF78607B681B689B69022231
:10173C001340022B03D17B681B6800229A627B68E2
:10174C001B689B6901221340012B07D07B681B6827
:10175C009A697B681B6801210A439A61C046BD46A1
:10176C0002B080BD80B584B000AFF860B9603B605A
:10177C00FB1D1A7021E03B6801331ED0FFF726FADF
:10178C000200BB69D31A3A689A4202D33B68002B19
:10179C0013D1FB685B6C20221A43FB685A64FB680C
:1017AC00412220219954FB68422200219954FB6864
:1017BC0040220021995401230FE0FB681B689B69B0
:1017CC00BA681340BA68D31A5A425341DBB21A00B2
:1017DC00FB1D1B789A42CED000231800BD4604B0E6
:1017EC0080BD80B584B000AFF860B9607A602BE042
:1017FC007A68B968FB68180000F06EF8031E01D017
:10180C00012329E0BB6801331ED0FFF7DFF902008A
:10181C007B68D31ABA689A4202D3BB68002B13D1E7
:10182C00FB685B6C20221A43FB685A64FB684122FC
:10183C0020219954FB68422200219954FB684022D4
:10184C0000219954012307E0FB681B689B69022265
:10185C001340022BCCD100231800BD4604B080BD30
:10186C0080B584B000AFF860B9607A6028E07A681F
:10187C00B968FB68180000F02FF8031E01D0012393
:10188C0026E0FFF7A3F902007B68D31ABA689A42E4
:10189C0002D3BB68002B13D1FB685B6C20221A436C
:1018AC00FB685A64FB68412220219954FB68422250
:1018BC0000219954FB68402200219954012307E030
:1018CC00FB681B689B6920221340202BCFD100237F
:1018DC001800BD4604B080BD90B58BB000AFF86069
:1018EC00B9607A602723FB1800221A70FB681B680A
:1018FC009B69BB6100233B627B68FB61BB69102267
:10190C00134000D182E0FB681B681022DA6160E0B2
:10191C0027243B193A1912781A70BB68013358D036
:10192C00FFF754F90200FB69D31ABA689A4206D33E
:10193C003B193A1912781A70BB68002B49D1FB6815
:10194C001B685A688023DB0113407B6113203B1812
:10195C00FA684221525C1A70FB681B689A698023F2
:10196C001B021A4080231B029A4226D17A698023DB
:10197C00DB019A4221D03B181B78202B1DD0FB6831
:10198C001B685A68FB681B688021C9010A435A60AE
:10199C00FFF71CF90300FB610FE0FFF717F90200DA
:1019AC00FB69D31A192B08D93B6A202213433B62DB
:1019BC002723FB1801221A700BE0FB681B689B693C
:1019CC002022134027217A18791809781170202BBE
:1019DC00E3D1FB681B689B6920221340202B04D0A9
:1019EC002723FB181B78002B92D02723FB181B787E
:1019FC00002B03D1FB681B682022DA613B6A0422AE
:101A0C0013433B622723FB1801221A70FB681B68E7
:101A1C009B69BB61BA6980235B0013400CD03B6AA5
:101A2C00012213433B62FB681B6880225200DA617F
:101A3C002723FB1801221A70BA698023DB0013409C
:101A4C000CD03B6A082213433B62FB681B68802264
:101A5C00D200DA612723FB1801221A70BA6980239D
:101A6C009B0013400CD03B6A022213433B62FB6881
:101A7C001B6880229200DA612723FB1801221A705E
:101A8C002723FB181B78002B1DD0FB681800FFF7D1
:101A9C0047FEFB681B685A68FB681B680D490A40C7
:101AAC005A60FB685A6C3B6A1A43FB685A64FB68C1
:101ABC00412220219954FB68422200219954FB6851
:101ACC004022002199542723FB181B781800BD468F
:101ADC000BB090BD00E800FE90B587B000AFF86089
:101AEC00080011007B600A243B19021C1A80092093
:101AFC003B180A1C1A703B191B889B059A0D3B1846
:101B0C001B781904FF231B040B401A437B681A43F0
:101B1C00BB6A13435B005B087B61FB681B685B68FB
:101B2C00BA6A510D8022D2000A4007490A43D243B7
:101B3C001A401100FB681B687A690A435A60C04658
:101B4C00BD4607B090BDC046FF63FF0380B582B0B1
:101B5C0000AF786039607B6841229B5CDBB2202B44
:101B6C0038D17B6840229B5C012B01D1022332E0EF
:101B7C007B684022012199547B684122242199548D
:101B8C007B681B681A687B681B6801218A431A6092
:101B9C007B681B681A687B681B6811490A401A60CD
:101BAC007B681B6819687B681B683A680A431A6073
:101BBC007B681B681A687B681B6801210A431A60E2
:101BCC007B684122202199547B6840220021995442
:101BDC00002300E002231800BD4602B080BDC046C1
:101BEC00FFEFFFFF80B584B000AF786039607B6891
:101BFC0041229B5CDBB2202B39D17B6840229B5C61
:101C0C00012B01D1022333E07B684022012199543E
:101C1C007B684122242199547B681B681A687B6875
:101C2C001B6801218A431A607B681B681B68FB6078
:101C3C00FB68114A1340FB603B681B02FA681343B4
:101C4C00FB607B681B68FA681A607B681B681A6803
:101C5C007B681B6801210A431A607B6841222021A2
:101C6C0099547B68402200219954002300E0022300
:101C7C001800BD4604B080BDFFF0FFFF80B584B0F6
:101C8C0000AF7860194B1B68194A13401900174BA9
:101C9C007A680A431A607A6880239B009A421FD1A3
:101CAC00144B1A6813005B009B185B001249180058
:101CBC00FEF722FA03000133FB6008E0FB68002BFF
:101CCC0003D0FB68013BFB6001E0032309E0074BF9
:101CDC005A698023DB001A408023DB009A42EDD046
:101CEC0000231800BD4604B080BDC0460070004003
:101CFC00FFF9FFFF0000002040420F0080B588B0C4
:101D0C0000AF78607B68002B01D10123FEE27B6879
:101D1C001B680122134000D17CE0C34B9B68382226
:101D2C001340BB61C04BDB68032213407B61BB6972
:101D3C00102B02D17B69032B02D0BB69082B0BD172
:101D4C00B94B1A6880239B02134062D07B685B6896
:101D5C00002B5ED10123D9E27B685A6880235B0299
:101D6C009A4207D1B04B1A68AF4B802149020A4303
:101D7C001A6020E07B685A68A023DB029A420ED1DD
:101D8C00A94B1A68A84B8021C9020A431A60A64BBA
:101D9C001A68A54B802149020A431A600BE0A24B3A
:101DAC001A68A14BA1490A401A609F4B1A689E4BB6
:101DBC009F490A401A607B685B68002B14D0FEF7C1
:101DCC0005FF03003B6108E0FEF700FF02003B69E2
:101DDC00D31A642B01D9032398E2934B1A688023FE
:101DEC009B021340F0D015E0FEF7F0FE03003B61C0
:101DFC0008E0FEF7EBFE02003B69D31A642B01D915
:101E0C00032383E2884B1A6880239B021340F0D192
:101E1C0000E0C0467B681B680222134000D199E0A9
:101E2C00814B9B6838221340BB617F4BDB680322DC
:101E3C0013407B61BB69102B02D17B69022B02D052
:101E4C00BB69002B35D1784B1A688023DB0013401B
:101E5C0005D07B68DB68002B01D1012356E2724B65
:101E6C005B68744A134019007B685B691A026E4BFD
:101E7C000A435A60BB69002B12D16B4B1B686E4A2C
:101E8C00134019007B681A69674B0A431A60664B4A
:101E9C001B68DB0A07221340684ADA40684B1A6059
:101EAC00684B1B681800FEF735FE031E51D001234A
:101EBC002CE27B68DB68002B30D05B4B1B685E4AE6
:101ECC00134019007B681A69574B0A431A60564B2A
:101EDC001A68554B802149000A431A60FEF776FEBA
:101EEC0003003B6108E0FEF771FE02003B69D31A68
:101EFC00022B01D9032309E24B4B1A688023DB0028
:101F0C001340F0D0484B5B684A4A134019007B6879
:101F1C005B691A02444B0A435A601BE0424B1A6835
:101F2C00414B49490A401A60FEF750FE03003B61E1
:101F3C0008E0FEF74BFE02003B69D31A022B01D9D5
:101F4C000323E3E1384B1A688023DB001340F0D104
:101F5C0000E0C0467B681B680822134047D0324B18
:101F6C009B6838221340182B0AD12F4B1B6E022270
:101F7C0013403CD07B689B69002B38D10123C5E111
:101F8C007B689B69002B19D0274B1A6E264B0121BD
:101F9C000A431A66FEF71AFE03003B6108E0FEF7DF
:101FAC0015FE02003B69D31A022B01D90323ADE1C4
:101FBC001D4B1B6E02221340F1D018E01A4B1A6E07
:101FCC00194B01218A431A66FEF700FE03003B61A0
:101FDC0008E0FEF7FBFD02003B69D31A022B01D986
:101FEC00032393E1104B1B6E02221340F1D17B684B
:101FFC001B680422134000D1C6E01F23FB180022EB
:10200C001A70094B9B6838221340202B1ED1064BAB
:10201C00DB6D0222134000D1B6E07B689B68002B7D
:10202C0000D0B1E0012371E100100240FFFFFEFF80
:10203C00FFFFFBFFFF80FFFFFFC7FFFF0024F40043
:10204C000000002010000020FFFEFFFFB14BDA6BF8
:10205C0080235B05134001D1012300E00023002BFA
:10206C0011D0AC4BDA6BAB4B802149050A43DA63D8
:10207C00A84BDA6B80235B051340FB60FB681F23C6
:10208C00FB1801221A70A44B1A6880235B001340C2
:10209C001AD1A14B1A68A04B802149000A431A603F
:1020AC00FEF794FD03003B6108E0FEF78FFD020094
:1020BC003B69D31A022B01D9032327E1964B1A68EB
:1020CC0080235B001340F0D07B689B68012B06D10A
:1020DC00904BDA6D8F4B01210A43DA651CE07B686B
:1020EC009B68052B0CD18B4BDA6D8A4B04210A4370
:1020FC00DA65884BDA6D874B01210A43DA650BE010
:10210C00844BDA6D834B01218A43DA65814BDA6D9E
:10211C00804B04218A43DA657B689B68002B14D0C2
:10212C00FEF754FD03003B6109E0FEF74FFD020092
:10213C003B69D31A794A934201D90323E6E0754BE4
:10214C00DB6D02221340F0D013E0FEF73FFD0300DD
:10215C003B6109E0FEF73AFD02003B69D31A6F4A76
:10216C00934201D90323D1E06A4BDB6D0222134069
:10217C00F0D11F23FB181B78012B05D1654BDA6BB3
:10218C00644B67490A40DA637B68DB69002B00D13A
:10219C00BBE0604B9B6838221340102B00D17BE0D6
:1021AC007B68DB69022B56D15A4B1A68594B5D4937
:1021BC000A401A60FEF70AFD03003B6108E0FEF7D7
:1021CC0005FD02003B69D31A022B01D903239DE0C4
:1021DC00504B1A6880239B041340F0D14D4BDB68A5
:1021EC00514A134019007B681A6A7B685B6A1A4370
:1021FC007B689B6A1B021A437B68DB6A1A437B6809
:10220C001B6B1A437B685B6B1A43424B0A43DA60C5
:10221C00404B1A683F4B802149040A431A603D4BDE
:10222C00DA683C4B802149050A43DA60FEF7CEFCA4
:10223C0003003B6108E0FEF7C9FC02003B69D31ABE
:10224C00022B01D9032361E0324B1A6880239B04D3
:10225C001340F0D059E02F4B1A682E4B31490A40ED
:10226C001A60FEF7B3FC03003B6108E0FEF7AEFC1E
:10227C0002003B69D31A022B01D9032346E0254BFC
:10228C001A6880239B041340F0D1224BDA68214B4F
:10229C0026490A40DA6038E07B68DB69012B01D102
:1022AC00012333E01B4BDB687B617B6903221A4003
:1022BC007B681B6A9A4226D17B6970221A407B6824
:1022CC005B6A9A421FD17A69FE23DB011A407B6854
:1022DC009B6A1B029A4216D17A69F8239B031A4017
:1022EC007B68DB6A9A420ED17A69E0231B051A409F
:1022FC007B681B6B9A4206D17B695B0F5A077B6824
:10230C005B6B9A4201D0012300E000231800BD460C
:10231C0008B080BD0010024000700040881300001F
:10232C00FFFFFFEFFFFFFFFE8C80C111FCFFFEEEF5
:10233C0080B584B000AF786039607B68002B01D128
:10234C000123E9E0764B1B68072213403A689A4256
:10235C001ED9734B1B68072293431900704B3A68C4
:10236C000A431A60FEF732FC0300FB6009E0FEF73B
:10237C002DFC0200FB68D31A6A4A934201D903234D
:10238C00CAE0674B1B68072213403A689A42EED1A9
:10239C007B681B680222134015D07B681B680422E3
:1023AC00134006D0604B9A685F4BE021C9010A4389
:1023BC009A605D4B9B685D4A134019007B689A6874
:1023CC00594B0A439A607B681B680122134057D013
:1023DC007B685B68012B07D1534B1A6880239B02E7
:1023EC0013402BD1012397E07B685B68022B07D14C
:1023FC004D4B1A6880239B0413401FD101238BE0A3
:10240C007B685B68002B07D1474B1A688023DB0085
:10241C00134013D101237FE07B685B68032B06D14B
:10242C00414B1B6E0222134008D1012374E03E4B3A
:10243C00DB6D0222134001D101236DE03A4B9B6806
:10244C000722934319007B685A68374B0A439A60FA
:10245C00FEF7BCFB0300FB6009E0FEF7B7FB0200D4
:10246C00FB68D31A2F4A934201D9032354E02E4B15
:10247C009B6838221A407B685B68DB009A42ECD17F
:10248C00274B1B68072213403A689A421ED2244BF2
:10249C001B68072293431900214B3A680A431A60C0
:1024AC00FEF794FB0300FB6009E0FEF78FFB0200D4
:1024BC00FB68D31A1B4A934201D903232CE0184B17
:1024CC001B68072213403A689A42EED17B681B685E
:1024DC000422134009D0144B9B68154A1340190071
:1024EC007B68DA68104B0A439A6000F029F8010007
:1024FC000D4B9B681B0A0F221A400E4B9200D358AF
:10250C001F2213400A00DA400B4B1A600B4B1B685E
:10251C001800FEF7FFFA03001800BD4604B080BD9A
:10252C00002002408813000000100240FFF0FFFF63
:10253C00FF8FFFFF582A0008000000201000002029
:10254C0080B586B000AF3C4B9B68382213400FD14E
:10255C00394B1B68DB0A0722134001229A401300F7
:10256C003B6039683548FDF7C7FD03003B615DE012
:10257C00314B9B6838221340082B02D1304B3B6106
:10258C0054E02D4B9B6838221340102B38D12A4B2A
:10259C00DB6803221340FB60274BDB681B09072217
:1025AC0013400133BB60FB68032B0DD1B968244881
:1025BC00FDF7A2FD030019001F4BDB681B0A7F22ED
:1025CC0013404B437B610DE0B9681C48FDF794FD4B
:1025DC0003001900184BDB681B0A7F2213404B4386
:1025EC007B61C046144BDB685B0F07221340013341
:1025FC007B6079687869FDF77FFD03003B6115E02E
:10260C000D4B9B6838221340202B03D180231B02D7
:10261C003B610BE0084B9B6838221340182B03D10D
:10262C00FA23DB013B6101E000233B613B691800AD
:10263C00BD4606B080BDC046001002400024F40028
:10264C0000127A0080B586B000AF78601323FB18B7
:10265C0000221A701223FB1800221A707B681A6869
:10266C0080239B02134000D1A3E011203B180022D1
:10267C001A70C34BDA6B80235B05134010D1C04B2F
:10268C00DA6BBF4B802149050A43DA63BC4BDA6B2A
:10269C0080235B051340BB60BB683B1801221A709A
:1026AC00B84B1A68B74B802149000A431A60FEF7F1
:1026BC008DFA0300FB600BE0FEF788FA0200FB6862
:1026CC00D31A022B04D91323FB1803221A7005E02A
:1026DC00AC4B1A6880235B001340EDD01323FB181E
:1026EC001B78002B54D1A64BDA6DC0239B001340F2
:1026FC007B617B69002B19D07B681B6B7A699A42D2
:10270C0014D09F4BDB6DA04A13407B619C4BDA6D60
:10271C009B4B802149020A43DA65994BDA6D984B41
:10272C009A490A40DA65964B7A69DA657B69012227
:10273C00134016D0FEF74AFA0300FB600CE0FEF7DC
:10274C0045FA0200FB68D31A914A934204D9132329
:10275C00FB1803221A7004E0894BDB6D0222134034
:10276C00EDD01323FB181B78002B0AD1844BDB6DA7
:10277C00854A134019007B681A6B814B0A43DA6552
:10278C000CE01223FB181322BA1812781A7005E009
:10279C001223FB181322BA1812781A701123FB1883
:1027AC001B78012B05D1764BDA6B754B79490A40B6
:1027BC00DA637B681B680122134009D0704B5B6D98
:1027CC000322934319007B685A686D4B0A435A6580
:1027DC007B681B680222134009D0694B5B6D0C228D
:1027EC00934319007B689A68654B0A435A657B686A
:1027FC001B681022134009D0614B5B6D664A134075
:10280C0019007B68DA685E4B0A435A657B681A6864
:10281C0080239B00134009D0594B5B6D5F4A1340DA
:10282C0019007B689A69564B0A435A657B681A688B
:10283C008023DB00134009D0514B5B6D584A134089
:10284C0019007B68DA694E4B0A435A657B681B6832
:10285C002022134009D04A4B5B6D524A1340190099
:10286C007B681A69464B0A435A657B681A68802351
:10287C00DB01134015D0424B5B6D9B0099087B68C4
:10288C001A6A3F4B0A435A657B681A6A8023DB0538
:10289C009A4206D13A4BDA68394B802149020A43F5
:1028AC00DA607B681A6880231B03134009D0344B11
:1028BC005B6D4022934319007B685A6A304B0A4384
:1028CC005A657B681A6880239B03134016D02C4BE7
:1028DC005B6D354A134019007B689A6A284B0A4392
:1028EC005A657B689A6A8023DB039A4206D1244B93
:1028FC00DA68234B802149040A43DA607B681A6842
:10290C008023DB03134016D01D4B5B6D274A13400D
:10291C0019007B68DA6A1A4B0A435A657B68DA6AD3
:10292C0080235B049A4206D1154BDA68144B802144
:10293C0049040A43DA607B681A6880231B01134040
:10294C0016D00F4B5B6D1A4A134019007B685A69FD
:10295C000B4B0A435A657B685A698023DB019A4208
:10296C0006D1074BDA68064B802149020A43DA602C
:10297C001223FB181B781800BD4606B080BDC0465C
:10298C000010024000700040FFFCFFFFFFFFFEFF45
:10299C0088130000FFFFFFEFFFF3FFFFFFFFF3FFC4
:1029AC00FFFFCFFFFFCFFFFFFFFFBFFFFFFFFFFECC
:1029BC00FF3FFFFF80B500AFFEF77FF8FDF728FC67
:1029CC00FDF730FC00231800BD4680BD70B5002615
:1029DC000C4D0D4C641BA410A64209D1002600F02E
:1029EC0021F80A4D0A4C641BA410A64205D170BDF7
:1029FC00B300EB5898470136EEE7B300EB58984715
:102A0C000136F2E798330008983300089833000831
:102A1C009C33000803008218934200D17047197050
:102A2C000133F9E7F8B5C046F8BC08BC9E467047C0
:0C2A3C00F8B5C046F8BC08BC9E467047C8
:102A480048656C6C6F2C0000576F726C6421000035
:102A5800000000000000000000000000000000006E
:102A6800000000000000000000000000000000005E
:102A78000100000002000000030000000400000044
:102A88000600000007000000080000000900000020
:102A9800000500081005000820050008300500089A
:102AA8004005000850050008000000000000000074
:102AB800000000000000000000000000000000000E
:102AC800000000000000FE00000000000000000000
:102AD80000000B000000000000000000001E001EA7
:102AE80000000000000000000000000000000000DE
:102AF80000001010F01E10F01E1000000000010F62
:102B080001010F01010100000000001C2242FF42E8
:102B18008C0000000000000608081F0807000000DD
:102B2800003C42423C80708C42408000000000081B
:102B38000601000708080700000080DC62A21C00EC
:102B480080000000000007080808070709080000BF
:102B58000000000000001E0000000000000000004F
:102B680000000000000000000000000000F00C025F
:102B78000000000000000000000F384000000000C6
:102B880000000000020CF00000000000000000003F
:102B980040380F000000000000000004340E340428
:102BA800000000000000000000000000000000001D
:102BB8000000404040F84040400000000000000095
:102BC80000030000000000000000000000000000FA
:102BD80000000000000000002018000000000000B5
:102BE80000000000000000000000000000000000DD
:102BF80001010101000000000000000000000000C9
:102C080000000000000000000008000000000000B4
:102C1800000000000080700E0000000000000000AE
:102C28000C03000000000000000000F80402020489
:102C3800F800000000000003040808040300000076
:102C4800000000001008FE00000000000000000066
:102C580000000F00000000000000000C0202824487
:102C6800380000000000000C0A09080808000000ED
:102C78000000000C024242A41800000000000006F8
:102C880008080804030000000000008040300CFE23
:102C980000000000000000010101010F0100000018
:102CA800000000704E222242820000000000000650
:102CB8000808080403000000000000F8442222422B
:102CC8008C00000000000003040808040300000052
:102CD8000000000202C2320A0600000000000000E4
:102CE8000E0100000000000000000018A44242A4E9
:102CF8001800000000000003040808040300000096
:102D08000000003844828244F800000000000006F9
:102D1800080808040300000000000000001000007C
:102D28000000000000000000000800000000000093
:102D3800000000000010000000000000000000007B
:102D4800201800000000000000000040A0A01010A3
:102D5800080000000000000000000101020000005F
:102D6800000000202020202020000000000000019A
:102D78000101010101000000000000081010A0A0DE
:102D880040000000000000020101000000000000F7
:102D98000000000C020282423C000000000000001B
:102DA800000B00000000000000E010E814121222DE
:102DB800F20408F00007081728484447482828174D
:102DC800000000E09C829CE0000000000008070072
:102DD80000000000070800000000FE424242424294
:102DE800BC00000000000F080808080807000000E1
:102DF800000000F8040202020418000000000003AA
:102E08000408080804030000000000FE0202020291
:102E180004F800000000000F080808080403000078
:102E28000000FE42424242424200000000000F08F9
:102E38000808080808000000000000FE424242425C
:102E4800020000000000000F000000000000000069
:102E58000000F80402028282849800000000030443
:102E68000808080808070000000000FE404040402D
:102E780040FE00000000000F00000000000F0000EE
:102E8800000000000000FE0000000000000000003C
:102E980000000F000000000000000000000000001B
:102EA800FE000000000000000708080807000000F6
:102EB8000000FE4020D008040200000000000F00BF
:102EC800000001060800000000000000FE000000ED
:102ED80000000000000000000F08080808080000B3
:102EE80000FE06788000807806FE0000000F0000D3
:102EF800030C0300000F0000000000FE0C30C000AF
:102F080000FE00000000000F00000001060F000096
:102F18000000F8040202020204F8000000000304A2
:102F280008080808040300000000FE42424242422A
:102F38003C00000000000F0000000000000000003E
:102F48000000F8040202020204F800000000030472
:102F580008080A04061B0000000000FE424242C2A4
:102F6800C23C00000000000F00000000010608003D
:102F780000001824424242841800000000000304A4
:102F880008080804030000000000020202FE020212
:102F98000200000000000000000F00000000000018
:102FA800000000FE0000000000FE0000000000031A
:102FB800040808080403000000021CE0000000E008
:102FC8001C020000000000000708070000000000C5
:102FD8001EE000C03C023CC000E01E0000030C03E1
:102FE800000000030C0300000000020418E0A01811
:102FF80004020000000008040300000304080000A5
:10300800000204186080601804020000000000003C
:10301800000F000000000000000002028242320A95
:103028000600000000000C0A090808080800000053
:103038000000000000FE0200000000000000000088
:10304800007F4000000000000000000006788000BB
:1030580000000000000000000000030C0000000059
:10306800000000000002FE00000000000000000058
:1030780000407F0000000000000000403806384093
:103088000000000000000000000000000000000038
:103098000000000000000000000000000000002008
:1030A8002020202020200000000000000002040052
:1030B8000000000000000000000000000000000008
:1030C80000000000601010A0C00000000000000018
:1030D800060909040F000000000000FE201010205F
:1030E800C00000000000000F0408080403000000EE
:1030F80000000000C0201010600000000000000068
:103108000304080806000000000000C0201010207A
:10311800FE00000000000003040808040F0000007F
:10312800000000C0A09090A0C000000000000003B4
:103138000408080402000000000000000010FE124D
:10314800000000000000000000000F000000000068
:10315800000000C020101020F00000000000003324
:10316800444848241F00000000000000FE20101002
:10317800E0000000000000000F0000000F00000049
:10318800000000000000F200000000000000000045
:1031980000000F0000000000000000000000F20026
:1031A800000000000000000000407F000000000058
:1031B80000000000FE80C020100000000000000099
:1031C8000F0000030C000000000000000000FE00DB
:1031D800000000000000000000000F0000000000D8
:1031E80000F0201010E0301010E00000000F000088
:1031F800000F0000000F000000000000F020101079
:10320800E0000000000000000F0000000F000000B8
:10321800000000C020101020C000000000000003C3
:103228000408080403000000000000F0201010202B
:10323800C00000000000007F04080804030000002C
:10324800000000C020101020F00000000000000363
:10325800040808047F0000000000000000F02010AF
:103268000000000000000000000F00000000000047
:103278000000000060909010200000000000000096
:103288000608080906000000000000000010FE10F3
:10329800000000000000000000000F08000000000F
:1032A80000000000F0000000F00000000000000036
:1032B800070808040F00000000000010E0000000EC
:1032C800E0100000000000000007080700000000F0
:1032D800000030C000C030C000C030000000000353
:1032E8000C0300030C030000000000001060806065
:1032F8001000000000000000080601060800000099
:1033080000000010E0000000E010000000000000D5
:1033180040473807000000000000000010109050DF
:1033280030000000000000000C0A09080800000036
:103338000000000000FE0200000000000000000085
:10334800017E400000000000000000000000FE00B8
:1033580000000000000000000000FF000000000066
:103368000000000002FE0000000000000000000055
:10337800407E010000000000000040202060404026
:1033880060000000000000000000000000000000D5
:04339800E500000844
:04339C00BD00000868
:1033A0000024F40000000050200000000100010192
:0833B000040000000100000010
:0400000508000409E2
:00000001FF
